:020000040800F2
:1000000000200020012F0008512E0008532E000868
:1000100000000000000000000000000000000000E0
:10002000000000000000000000000000552E000845
:100030000000000000000000572E0008592E0008A4
:10004000512F0008512F0008512F0008512F000890
:10005000512F0008512F0008512F0008512F000880
:10006000512F0008512F0008512F0008652E00085D
:10007000792E0008512F0008512F0008912E0008FA
:10008000512F0008512F000800000000512F0008D8
:10009000512F0008512F0008512F0008512F000840
:1000A000512F0008512F0008512F0008512F000830
:1000B000512F000800000000512F00080000000030
:1000C00010B5064C2378002B07D1054B002B02D02E
:1000D000044800E000BF0123237010BD4800002049
:1000E00000000000B02F0008044B10B5002B03D017
:1000F0000349044800E000BF10BDC04600000000F6
:100100004C000020B02F000802B471464908490095
:10011000095C49008E4402BC7047C0460022430877
:100120008B4274D303098B425FD3030A8B4244D3BF
:10013000030B8B4228D3030C8B420DD3FF22090201
:1001400012BA030C8B4202D31212090265D0030BC0
:100150008B4219D300E0090AC30B8B4201D3CB03B6
:10016000C01A5241830B8B4201D38B03C01A5241F8
:10017000430B8B4201D34B03C01A5241030B8B42FA
:1001800001D30B03C01A5241C30A8B4201D3CB02E5
:10019000C01A5241830A8B4201D38B02C01A5241CA
:1001A000430A8B4201D34B02C01A5241030A8B42CD
:1001B00001D30B02C01A5241CDD2C3098B4201D3E5
:1001C000CB01C01A524183098B4201D38B01C01A63
:1001D000524143098B4201D34B01C01A52410309DA
:1001E0008B4201D30B01C01A5241C3088B4201D389
:1001F000CB00C01A524183088B4201D38B00C01A36
:10020000524143088B4201D34B00C01A5241411A5C
:1002100000D20146524110467047FFE701B5002069
:1002200000F0F0F802BDC0460029F7D076E770472D
:1002300003460B437FD4002243088B4274D3030947
:100240008B425FD3030A8B4244D3030B8B4228D3E8
:10025000030C8B420DD3FF22090212BA030C8B420E
:1002600002D31212090265D0030B8B4219D300E0AE
:10027000090AC30B8B4201D3CB03C01A5241830B33
:100280008B4201D38B03C01A5241430B8B4201D3E3
:100290004B03C01A5241030B8B4201D30B03C01A0C
:1002A0005241C30A8B4201D3CB02C01A5241830A86
:1002B0008B4201D38B02C01A5241430A8B4201D3B5
:1002C0004B02C01A5241030A8B4201D30B02C01ADF
:1002D0005241CDD2C3098B4201D3CB01C01A524146
:1002E00083098B4201D38B01C01A524143098B42CF
:1002F00001D34B01C01A524103098B4201D30B01B8
:10030000C01A5241C3088B4201D3CB00C01A5241DC
:1003100083088B4201D38B00C01A524143088B42A1
:1003200001D34B00C01A5241411A00D2014652413A
:10033000104670475DE0CA0F00D04942031000D359
:100340004042534000229C4603098B422DD3030AAE
:100350008B4212D3FC22890112BA030A8B420CD3BE
:10036000890192118B4208D3890192118B4204D3E7
:1003700089013AD0921100E08909C3098B4201D367
:10038000CB01C01A524183098B4201D38B01C01AA1
:10039000524143098B4201D34B01C01A5241030918
:1003A0008B4201D30B01C01A5241C3088B4201D3C7
:1003B000CB00C01A524183088B4201D38B00C01A74
:1003C0005241D9D243088B4201D34B00C01A52414B
:1003D000411A00D20146634652415B10104601D3D8
:1003E0004042002B00D54942704763465B1000D362
:1003F000404201B5002000F005F802BD0029F8D008
:1004000016E770477047C04610B5040000F00AFFB9
:10041000FA218900FFF782FE00F0BEFA01200022D7
:100420002100404200F07EFA002010BD1023064A51
:1004300010B5116800200B431360FFF7E5FF02F0D1
:10044000FFFB002010BDC04600200240024A136896
:10045000013313607047C04610010020014B18683B
:100460007047C0461001002037B50190FFF7F6FF36
:10047000019C0500631C5A1E9341E418FFF7EEFF30
:10048000401BA042FAD337BDF8B504000120002C70
:1004900072D0636C002B06D122004032A36420008E
:1004A000137002F0EBFB636CDB0600D579E00422ED
:1004B00023689868104000D073E0626C4249114094
:1004C00002220A43032162649A680A40012A00D08A
:1004D0006DE01968114202D1DA68120467D5DA6852
:1004E0003A49256A0A40DA60A2696F039103E2691A
:1004F000D2031143626B013A561EB2411603E26801
:10050000114322690F43022A00D10420226B616A41
:1005100052003A4332430243012904D1002D2CD129
:10052000802149020A43C220A16AFF30814202D0E1
:10053000E06A01430A438020D96840051143D9602D
:10054000A16B814202D0481E062807D807255869AA
:100550002940A8435861586901435961DB681C4927
:100560000B409A4211D100200322A064636C934394
:100570001A00012313436364F8BD2020656C2843EF
:100580006064A06C0143A164CDE71222636C01207A
:1005900093431A00102313436364A36C0343A364BF
:1005A000EAE71023626C012013436364E4E7182137
:1005B000DA688A43A1680A43DA60196962688900C7
:1005C0008908114319618AE7FDFEFFFF1902FEFF4A
:1005D000E7FF3F83704770477047000004220368BD
:1005E00070B519680400114202D05968114206D151
:1005F00008221968114228D05968114225D0626C2E
:10060000D20604D48022616C92000A436264C02244
:10061000D9681201114212D1226A002A0FD11A6838
:1006200012070CD59A6852073CD40C215A688A43A9
:100630005A60636C204A1A4001231343636420000C
:10064000FFF7C8FF0C2223681A60802523681A6808
:100650002A420CD05B682B4209D08023626C5B027B
:10066000134363642000FFF7B6FF23681D60102268
:1006700023681968114214D05968114211D0626B75
:10068000012A02D0DA68D20708D50222A16C200024
:100690000A43A26410221A60FFF79EFF102223680B
:1006A0001A6070BD2023626C134363640123A26C43
:1006B0001343A364C3E7C046FEFEFFFFF7B5002364
:1006C000040001934034237805000220012B2BD035
:1006D00001232A68AE6B9068237040075AD43048D3
:1006E0004F680D6887423FD0AB4018008023976A5F
:1006F0005B05384390629E420FD0013E062E0CD916
:100700008B68072150690840834206D050690B402E
:10071000884350615069034353612B00103B022B07
:1007200003D9002000232370FEBD1E4A80231168D8
:10073000102D15D0112D15D05B040B431360102D17
:10074000EFD1194B19491868FFF7E8FC0A23584301
:100750000190019B002BE4D0019B013B0193F8E742
:100760001B04EAE7DB03E8E7AB40916A99432B00FF
:10077000103B9162022BD4D80A4B1A68102D05D079
:10078000112D05D00A490A401A60CAE70949FAE75B
:100790000949F8E72022696C18000A436A64C1E736
:1007A00001100000082701404400002040420F00D3
:1007B000FFFFFFFEFFFF7FFFFFFFBFFF37B5040016
:1007C0000120002C38D0A36ADB0635D41B4B996975
:1007D000014399619B69034001932000019B02F052
:1007E00077FAA36A002B01D1621DD3770223144A42
:1007F000A3622368A5689A185142514163680A01AF
:100800002B43E5680F492B43256908682B4365692D
:100810002B43A5692B430C4D93409540A8430343BC
:100820000B60E369002B04D080230A681B04134388
:100830000B6001230020A3623EBDC04600100240B1
:10084000E2FFFEBF1C0001407E3F000030B50123E7
:10085000002816D0816A0F3319400F3B002910D1B0
:10086000826A9A420DD1084C0268121955425541CC
:100870002A019340054C25682B43236002238362A1
:100880000B00180030BDC046E2FFFEBF1C00014057
:1008900070B50122002814D01023816A194010D1AC
:1008A000836A022B0DD1084C036816001B195D42A8
:1008B0005D412B019E40054D2C68B4432C60826243
:1008C0000A00100070BDC046E2FFFEBF1C000140E0
:1008D000074A03689B185A425341064A1B01106895
:1008E0008022D20111009940084000D010007047CA
:1008F000E2FFFEBF1C000140084B026810B59A429F
:1009000009D08023DB03064A5169194202D05361A2
:1009100001F028FC10BD80239B03F4E71C0001407C
:100920000004014070B58901002814DA0F23C0B219
:100930000340083B114A9B089B009B180322104070
:100940009040FC321500114085408140DC69AC4389
:100950002143D96170BD032583082840A840FC3598
:100960002E00074A9B009B18C022864029408140E8
:1009700092009C58B44321439950EBE700ED00E00E
:1009800000E100E01F2318401E3B8340014A136032
:100990007047C04600E100E0094A431E012093422F
:1009A0000DD8C021074A08485360036A09061B0294
:1009B0001B0A0B43036200200723906013607047FB
:1009C000FFFFFF0010E000E000ED00E0054B1A68BB
:1009D000042802D110431860704704218A431A602A
:1009E000FAE7C04610E000E0704710B5FFF7FCFFE3
:1009F00010BD000070B504000120002C28D0022397
:100A00002068A51CEB770268124BA1681A40636846
:100A10000B43E1680B4321690B4361690B43A169F7
:100A20000B43E1690B43134303600B4B1421C018C4
:100A3000FFF774FB094B80002064E363002001236F
:100A4000A062E06220636063A063E418EB77E07764
:100A500070BDC0460FC0FFFFF8FFFDBF00000240A1
:100A6000F0B5461CF57F0224012D26D00125F5772F
:100A70000519AC46ED7F0027EDB2012D29D1664660
:100A8000F477046887632668076CAE43BD40266030
:100A9000C66B7560636043680568102B0FD1A26058
:100AA000E160C36A2268002B0CD00E23134323603D
:100AB000012300242A6813432B602000F0BDA160AD
:100AC000E260EEE70A231343042223602368934382
:100AD000EDE7F777F1E7F8B504273E00016CC26B4C
:100AE0008E40156803681C682E420DD03C420BD026
:100AF0001968890602D41968B9431960C36A566037
:100B0000002B19D0984717E002273E008E402E4256
:100B100013D03C4211D01968890606D40A241968FA
:100B2000A14319600121C319D97756600022431CE3
:100B3000DA77836A9342E5D1F8BD082637008F4003
:100B40003D42F9D03442F7D00E251C68AC431C60FE
:100B500001231C008C405460821C8363D3770022E5
:100B6000C318DA77036BE5E7F0B50B6887B002933B
:100B700000230191029ADA4001D107B0F0BD0122B1
:100B80009A4003920399029A0A40009200D18CE0A5
:100B9000019A1021526816008E43022E0ED10725AD
:100BA0001D40AD000139A940DC08A4000419276AE2
:100BB0008F4301990969A9400F43276203245F000D
:100BC000BC40E4430568013E2540AC460325154082
:100BD000BD4061460D430560012E0FD8019986681E
:100BE000CD682640BD4035438560466803991509A8
:100BF0008E4301210D409D4035434560C5680199F4
:100C00002C408D688021BD4049052C43C4600A42B8
:100C10004BD00121264C0326A5691E400D43A5613A
:100C2000A4699D080C400594059C0F242149AD0042
:100C3000B6006D18B4409021AF68C905A7430024E1
:100C400088420CD01C490134884208D01B49013429
:100C5000884204D01A490334884200D1023CB4408F
:100C600000993C430E00AC60164CCD4327683E43D0
:100C7000D10301D43E002E4026606768009E3E43AB
:100C8000910301D43E002E406660A768009E3E435B
:100C9000D10201D43E002E40A660E668009F374393
:100CA000920201D42E403700E760013362E7C0466C
:100CB0000010024000000140000400480008004805
:100CC000000C0048000401404369594041617047ED
:100CD000F0B5036885B00500DB072FD42B689B07B0
:100CE00000D581E02B681B0700D5BCE02B685B07B3
:100CF00000D5DFE02B68DB061AD56A69B54C042302
:100D0000012A00D04BE1616B02260B436363636BE6
:100D10001A436263FFF7A2FB0700636B334200D103
:100D200036E1F821626BAB698A43DB0013436363EE
:100D3000296A002900D059E1002013E00C21A54CBC
:100D400062680A40042A06D063680B40082B0BD166
:100D50006368DB0308D523689B03BFD56B68002B52
:100D6000BCD1012005B0F0BD6B68012B13D18023ED
:100D700022685B0213432360FFF770FB80260700A5
:100D8000B60223683342A9D1FFF768FBC01B642871
:100D9000F7D90320E6E7002B16D123688E4A802678
:100DA0001340236023688D4AB60213402360FFF787
:100DB00055FB07002368334200D18FE7FFF74EFB56
:100DC000C01B6428F6D9E4E7052B05D180232268EF
:100DD000DB0213432360CAE723687F4A1340236082
:100DE00023687E4A1340C6E70C227A4C636813429C
:100DF00006D063681340082B10D16368DB030DD461
:100E000023689B0702D5EB68012BAAD1F821226841
:100E10002B698A43DB001343236063E7EA680123FD
:100E2000002A0FD02268022613432360FFF716FB27
:100E3000070023683342E9D1FFF710FBC01B0228EB
:100E4000F7D9A6E7226802269A432260FFF706FB3D
:100E500007002368334200D144E7FFF7FFFAC01BC5
:100E60000228F6D995E7EA6901235A4C002A10D0E6
:100E7000626A022613436362FFF7F0FA0700636AAF
:100E8000334200D032E7FFF7E9FAC01B0228F6D957
:100E90007FE7626A02269A436262FFF7DFFA070081
:100EA000636A334200D121E7FFF7D8FAC01B02285A
:100EB000F6D96EE780220021464C5205E369009185
:100EC000134208D1E3691343E361E36913400393D9
:100ED000039B012300938027414E7F0033683B42F0
:100EE00006D0AB68012B13D1226A1343236230E092
:100EF00033683B433360FFF7B1FA019033683B42FC
:100F0000EFD1FFF7ABFA019BC01A6428F6D940E78E
:100F10000122002B14D1236A022793432362236A00
:100F2000033293432362FFF799FA0600236A3B4298
:100F300025D0FFF793FA2B4B801B9842F6D928E770
:100F4000052B0BD1216A013B0B432362236A1A4311
:100F50002262FFF783FA022706000DE0236A93431B
:100F600004222362236A9343C0E7FFF777FA1D4BFD
:100F7000801B984200D90CE7236A3B42F5D0009BC6
:100F8000012B00D0B6E6E369174A1340E361B1E6EE
:100F9000FFF764FAC01B022800D8BEE6F9E6053266
:100FA00003D1626B9A436263BBE6626B0226134312
:100FB00001226363636B93436363FFF74FFA070098
:100FC000636B334200D1B3E6FFF748FAC01B022837
:100FD000F6D9DEE600100240FFFFFEFFFFFFFBFF39
:100FE0000070004088130000FFFFFFEF0C22264C2A
:100FF000012063681340082B00D1B3E62368234A1D
:101000001340236002292FD1FFF728FA802607001A
:10101000B6042368334221D10F22E36A9343EA6A7C
:101020001343E362696AAB6A62680B43184980251F
:101030000A4013436360802322685B0413432360E8
:10104000FFF70CFA0600AD0423682B4200D073E6CC
:10105000FFF704FA801B0228F6D99AE6FFF7FEF99B
:10106000C01B0228D5D994E6FFF7F8F980250600C1
:10107000AD0423682B4200D15EE6FFF7EFF9801B39
:101080000228F6D985E6C04600100240FFFFFFFEA9
:10109000FFFFC2FF70B5144C88B0102221006846D3
:1010A00001F07CFF210004AD10221031280001F076
:1010B00075FF0C220D4E73681A40082A11D10F20BB
:1010C0006A46990C0140545CF26A0240A95CDB0359
:1010D00005D50748FFF722F8604308B070BD054802
:1010E000FAE70348F9E7C046C82F0008001002409D
:1010F00000127A0000093D00F7B50122434C0600BA
:1011000023680F0013408B421CD33268930723D40B
:10111000D30729D4012322681A40974267D3336842
:101120003B4C5B076AD4FFF7B5FF6368394A1B067F
:101130001B0FD35CD840384B18600020FFF764F9D0
:10114000002008E0236893430B4323602368134087
:101150009942DAD00120FEBDF0202D494B6883432F
:10116000B06803434B60D3E7294D72682B68012AAE
:101170001AD19B03EED503216B688B4313436B603D
:10118000FFF76CF973680190012B15D10C226B6885
:101190001340042BBED0FFF761F9019BC01A1F4B0F
:1011A0009842F3D90320D6E7022A02D19B01E2D468
:1011B000D0E79B07DFD4CDE7022B12D00C226B685F
:1011C0001342A7D0FFF74AF9019BC01A134B98426C
:1011D000F4D9E7E7FFF742F9019BC01A0F4B984299
:1011E000E0D80C226B681340082BF3D192E72268F9
:1011F0009A43226022681A42ACD190E76368084A99
:101200001340F268134363608DE7C046002002403C
:101210000010024003300008440000208813000042
:10122000FFF8FFFF014B18687047C04644000020DC
:101230000122036A70B593430362036A44688569B7
:10124000723295430A681543022293438A68134316
:10125000144A904208D0144EB04205D0134EB0420A
:1012600002D0134EB04216D10826B343CE683343A2
:101270000426B343904208D00B4A904205D00B4A53
:10128000904202D00A4A904205D10A4A8E69224011
:101290004C69344314434A68446085614263036285
:1012A00070BDC046002C0140004001400044014098
:1012B00000480140FFFCFFFF70B57325036A174A21
:1012C00013400362036A4268C469AC430D682C434F
:1012D000134D2B408D682D022B43124DA8420ED189
:1012E000114D1D40CB681B022B43104D2B40104D60
:1012F0004E6915408A69324312012A4308E00D4DB8
:10130000A842F4D00C4DA842F1D00C4DA842EED02A
:1013100042604A68C461C263036270BDFFFEFFFFA2
:10132000FFFDFFFF002C0140FFF7FFFFFFFBFFFF6A
:10133000FFCFFFFF00400140004401400048014052
:10134000036A144A30B513400362026A124C4368C0
:10135000C56925400C6824022543104C22408C6846
:10136000240322430E4CA04208D00E4CA04205D0CC
:101370000D4CA04202D00D4CA04204D10C4C234095
:101380004C69A401234343604B68C5610364026256
:1013900030BDC046FFEFFFFFFF8CFFFFFFDFFFFF09
:1013A000002C014000400140004401400048014041
:1013B000FFBFFFFF02000223012100683D321370CE
:1013C00003680B430360002011707047012203681B
:1013D000D96800201143D96019680A431A60704720
:1013E000704770477047704710B5446A0123220068
:1013F0003D321370626A904206D123772000FFF7D6
:10140000F2FF0023237710BDA36A984201D1022383
:10141000F3E7E36A984201D10423EEE7236B984295
:10142000ECD10823E9E7704770470222036810B542
:101430001969040011420ED0D96811420BD0053A47
:101440001A619B69043202779B0700D179E0FFF7AC
:10145000CAFF00232377042223681969114210D0A0
:10146000D96811420DD0093A1A61073222779A6978
:10147000C0239B0020001A4269D0FFF7B4FF00236D
:10148000237708222368196911420ED0D9681142C6
:101490000BD0113A1A61DB690D32227720009B07CD
:1014A0005BD0FFF7A0FF0023237710222368196980
:1014B000114210D0D96811420DD0213A1A61193267
:1014C0002277DA69C0239B0020001A424BD0FFF735
:1014D0008AFF00232377012223681969114207D06C
:1014E000D968114204D0033A1A61200000F0F0FDDF
:1014F000802223681969114208D0D968114205D0A9
:10150000023AFF3A1A61200000F0E7FB402223680C
:101510001969114207D0D968114204D0813A1A6181
:101520002000FFF781FF202223681969114207D0AC
:10153000D968114204D0413A1A61200000F0CCFB76
:1015400010BDFFF74FFF2000FFF76DFF81E7FFF7AA
:1015500049FF2000FFF767FF91E7FFF743FF2000F7
:10156000FFF761FF9FE7FFF73DFF2000FFF75BFFFD
:10157000AFE77047406A0122030010B53D331A708F
:10158000FFF7F7FF10BD0000204A10B50368904236
:1015900006D08024E405A04202D01D4CA0420CD10C
:1015A0007024A3434C682343904212D08024E40566
:1015B000A0420ED0164CA0420BD0164CA04208D030
:1015C000154CA04205D0154CA04202D0144CA042AC
:1015D00003D1144C2340CC6823438024A3434C699B
:1015E000234303608B68C3620B688362904208D018
:1015F000094B984205D0094B984202D0084B9842BB
:1016000001D10B6903630123436110BD002C01402C
:101610000004004000200040004001400044014020
:1016200000480140FFFCFFFF70B504000120002CC2
:1016300014D025003D352B78DBB2002B05D12200DC
:101640003C321370200001F061FB022320682B70F4
:10165000211DFFF799FF012300202B7070BD70B58D
:1016600004000120002C14D025003D352B78DBB27E
:10167000002B05D122003C3213702000FFF7B0FE92
:10168000022320682B70211DFFF77EFF012300201D
:101690002B7070BD70B504000120002C14D0250003
:1016A0003D352B78DBB2002B05D122003C32137084
:1016B0002000FFF796FE022320682B70211DFFF704
:1016C00063FF012300202B7070BD00001022036A0D
:1016D00070B593430362026A164D436884692C40D7
:1016E0000D682D022C432025AA438D682D012A4325
:1016F000114DA8420FD18025AA431500CA681201D6
:101700002A434025AA430D4D4E691D408B69334342
:101710009B002B4308E00A4DA842F4D0094DA84293
:10172000F1D0094DA842EED043604B6884618363D9
:10173000026270BDFF8CFFFF002C0140FFF3FFFF32
:10174000004001400044014000480140F8B5060057
:1017500002233C360D00317804001800012925D001
:10176000270001213D3731703B700C2A1AD8100038
:10177000FEF7CAFC071818181D1818182F18181883
:10178000410029002068FFF753FD0822236899696A
:101790000A4304219A619A698A439A619A6929697C
:1017A0000A439A61012300203B703070F8BD290084
:1017B0002068FFF78BFF80222368120199690A4392
:1017C0009A619A6915490A409A612A6999691202CF
:1017D000E6E729002068FFF76FFD08222368D96932
:1017E0000A430421DA61DA698A43DA61DA6929692C
:1017F0000A43DA61D6E729002068FFF7A1FD8022BD
:1018000023681201D9690A43DA61DA6903490A4097
:10181000DA612A69D9691202EAE7C046FFFBFFFFD5
:10182000F0B50124056A114FA54305628669056A72
:10183000B84209D08027FF05B84205D00C4FB84206
:1018400002D00C4FB8420FD10324A643F0243243F8
:10185000A2431B010F342340F53CA54321402943FB
:101860001A4382610162F0BD2200EFE7002C0140C3
:101870000004004000400140F7B50D0001000223C4
:101880003C310E7804001800012E1AD0013808707F
:101890004B70002A16D1EB686A6829682068FFF748
:1018A000BFFF0C2123689A698A439A619A69A968E3
:1018B0000A439A612300012200203D333C341A7010
:1018C0002070FEBD2968236801916E68E868042ACB
:1018D0001ED110271A6A3049BA431A629F6936022C
:1018E0000F403E432D4F00073E40000C3043A026E2
:1018F00001991A6A0901B243314011439861196292
:101900009A6927490A409A61AA6899691202CFE741
:10191000AD68082A20D103211A6A224F00013A40FB
:101920001A62DF691A6A8F433E43F027BE430F37BE
:10193000384006431C4801990240A02009020001DA
:1019400001401143DE6119620C21DA698A43DA61D0
:10195000DA691543DD61ADE71A6A144F0E493A4062
:101960001A62DF6936020F403E430C4F00073E40CB
:10197000000C1A6A30430E4E01993240A02609032A
:10198000360231401143D8611962DA6904492D02E7
:101990000A40DA61DA69DCE7FFFCFFFFFF0FFFFFB7
:1019A000FFF3FFFFFFFEFFFFFFF5FFFFFFEFFFFF6E
:1019B000FF5FFFFF30B58468034D0A431B022C40D4
:1019C00013432343836030BDFF00FFFFF8B50500DC
:1019D00002233C352A7804001800012A19D0260079
:1019E000012720683D362F70337083684F4A1340BB
:1019F00083600B68402B00D16FE016D8102B00D10C
:101A000087E007D8002B00D17DE001230020337050
:101A10002870F8BD202B00D181E0302BF5D1702249
:101A2000836893431A00372355E0702B33D01BD8BB
:101A3000502B3BD0602BE8D110244B68CA68016A58
:101A40003B4FA1430162846912033C402243A0241E
:101A5000016A82617022A1431B010B430362836808
:101A600093431A00672336E08022520193420DD03F
:101A7000802292019342C8D1CB684A688968FFF7F7
:101A800099FF80232268DB0191680CE007228368BC
:101A900093438360B9E7CB684A688968FFF78AFF98
:101AA0007721226893680B439360AEE74A68CB685E
:101AB000016A046A1B01BC43F02704628469BC43C9
:101AC00023430A24A1430A4383610262702283688C
:101AD00093431A0057231343DBE74A68CB68016A34
:101AE000046A1B01BC43F02704628469BC4323439E
:101AF0000A24A1430A4383610262702283689343EC
:101B00001A004723E7E77022836893431A000723EC
:101B1000E1E77022836893431A001723DBE7702202
:101B2000836893431A002723D5E7C0468800FFFF48
:101B3000FF0FFFFF10B501248C408A40036AA343C6
:101B40000362036A1A43026210BD000070B50D0003
:101B50000100040002203D310E7886422FD0087823
:101B6000C0B2012805D1002A01D1002B27D10220C3
:101B700008700C2D18D82800FEF7C6FA071616169E
:101B800022161616301616163E00606A214981622A
:101B90002149016321683431FEF762FF8023226806
:101BA0009B00D1680B43D360012229002068FFF716
:101BB000C1FF01230020226811680B43136070BD30
:101BC000A06A144981621449016321683831FEF723
:101BD00047FF80232268DB00D168E3E7E06A0D4914
:101BE00081620D49016321683C31FEF739FF802392
:101BF00022681B01D168D5E7206B0649816206493E
:101C0000016321684031FEF72BFF802322685B01CE
:101C1000D168C7E7E91300087515000830B504005E
:101C20003C34227803000220012A17D01D001B68D3
:101C30003D3528705A686E3082435A605A68086889
:101C40004968024380205A609A6882439A609A6881
:101C500000200A439A6001232B70207030BD0000E1
:101C600030B504003C34237802000220012B24D03C
:101C700015003D352870114BC8681268034088680C
:101C800003430F480340486803430E480340086875
:101C900003430D480340086903430C480340486967
:101CA000896903430A4803400A480B4303400B4336
:101CB0005364002001232B70207030BDFFFCFFFF18
:101CC000FFFBFFFFFFF7FFFFFFEFFFFFFFDFFFFF60
:101CD000FFBFFFFFFF7FFFFF70477047F0B5002693
:101CE0000F6885B03B00F3400CD14B68013B012BE2
:101CF00005D8CA6843687A43BB4313434360012055
:101D000005B0F0BD0123B3403B4036D04A680325FF
:101D100001921A005A435543ED43046802952C4042
:101D2000019D55432C430460019C013C012C0AD8C1
:101D30008468A44665468C6854430394029C2540FD
:101D4000039C2C438460C468A44665460C695443D4
:101D50000394029C2C402500039C2543019CC560F4
:101D6000022C0AD14C69FF2B09D80F255243554349
:101D70006243036AAB43134303620136B2E70F22A7
:101D80001B0A5B435B435A436343456A95431D43C8
:101D90004562F2E7054B82B05A6902435A615B69BA
:101DA00018400190019B02B07047C04600100240ED
:101DB000012811D1032219490B6893431A00022309
:101DC00013430B609021C9050B68154A1A40802304
:101DD0001B0313430B607047022814D103210F4AE1
:101DE00013688B4302390B43136091629023DB0528
:101DF0001A680B4911408022D2020A431A608022DD
:101E000092009A62E7E70328E5D10121034A1368AB
:101E100083430B4313609161E8E7C0460004004828
:101E2000FFFFF3FF012810D19023DB051A681A4940
:101E30001140802212020A431A601A6817491140A1
:101E4000802292020A431A607047022815D190231B
:101E5000DB051A68104911408022D2010A431A603A
:101E600080229A621A680D491140802252020A4368
:101E70001A60802252009A62E6E70328E4D1902398
:101E8000DB051A68044911408022D2010A431A6016
:101E900080229A61E6E7C046FF3FFFFFFFFFFCFF9D
:101EA000012811D10C221B490B6893431A00082307
:101EB00013430B609021C9050B68174A1A40802311
:101EC0009B0313430B607047022815D10C21114B63
:101ED0001A688A43110004220A431A609862902308
:101EE000DB051A680C491140802252030A431A602C
:101EF0008022D2009A62E6E70328E4D10C21054B48
:101F00001A688A43110004220A431A6002229A6165
:101F1000E5E7C04600040048FFFFCFFF10B50128E9
:101F200009D11E4B1868FFF743FF1D4B1868FFF7D8
:101F300079FF1C4B0AE002280CD11A4B1868FFF7F6
:101F400037FF174B1868FFF76DFF144B1868FFF742
:101F5000A7FF10BD032805D1114B1868FFF728FF14
:101F6000104BEFE7042805D10D4B1868FFF720FF51
:101F70000A4BDBE7052809D10A4B1868FFF718FF61
:101F8000064B1868FFF74EFF054BDFE70628E0D148
:101F9000024B1868FFF70CFF024BF2E7200000200D
:101FA0001C0000201000002010B5054C2068FFF731
:101FB000FFFE2068FFF736FF2068FFF771FF10BDB6
:101FC0001000002010B5124C2000FEF761FC114BF0
:101FD0001B68012B01D0042B01D160226260022B0F
:101FE00001D0052B01D140226260032B01D0062BCA
:101FF00001D1502363602000FEF7E0FB002800D0F1
:10200000FEE72000FEF722FC002800D0FEE710BD0E
:10201000540100202C000020264B10B51968264BD7
:1020200001292AD11A680132062A24DC1A601A68AA
:10203000022110008843012801D0052A02D1012085
:102040001E490860042110008843022801D0042A98
:1020500002D10021194A11601868FFF75FFFFFF7EE
:10206000B1FF0023164A1360164A1360164A136024
:10207000164A136010BD1960D9E70029ECD11A681F
:10208000013A002A14DD1A601A6802211000884300
:10209000012801D0052A02D1002008490860042146
:1020A00010008843022801D0042AD5D10121D1E7AC
:1020B0000622E8E7140000202C0000202400002065
:1020C00040000020B000002068000020FC0000203C
:1020D0008022036810B5D205934212D1094A1268D2
:1020E000002A0ED1DB6A084A5B081360074B1B68A5
:1020F000012B06D1802290231202DB059A62FFF7A2
:102100008BFF10BDE400002008010020E00000204B
:10211000372270B50A240E4B5A639A63DA63FFF7CD
:102120007BFF2000013CFEF79FF9002CF7D1012531
:10213000084B05201D60084B1A688023DB05DA6216
:102140005C62FEF791F9054B1D60054B1D6070BD8B
:10215000002C01404000002034000020E00000205E
:10216000E4000020094B5A6A094B1B689A420CD9BB
:10217000802290231202DB059A61064B1B68002B1C
:1021800003D1054A1368013313607047002C0140E6
:102190000800002040000020680000200023F7B560
:1021A000304A314F1370314A314E1370314A3B700F
:1021B0001370314A33701370304A94461168304AB4
:1021C00064461268019400922E4A10680122009C15
:1021D000A2422CDB2B4A002B00D0106013681A1F80
:1021E000112A01D801223A701A00293A262A01D868
:1021F000012232701A009521653A49008A4202D8BC
:10220000012218490A70204A20499A188A4202D8A5
:10221000012216490A701E4A1E489A18012182425C
:1022200013D8144B197001221B4B1A70F7BD940080
:10223000A4466546019C6459A446611A814201D2B4
:102240000800012361460132C1E7144A9342EADDE6
:10225000094B2F2219708023DB059A62303A5A62AB
:10226000E1E7C046C4000020AC000020C60000200A
:10227000D8000020C5000020E8000020C001002098
:1022800018000020280000202FF8FFFFE6030000C0
:1022900047F4FFFFDE2E0000B8000020983A00004F
:1022A0000120134970B50B68124D134E82008C58F3
:1022B000EB1A1B19B34216D8002410488D186B680E
:1022C0002D6808325B1B403BDB0823500434102C84
:1022D000F4D103684268DB01D200134382681343E0
:1022E000074A136070BD013023001028DED1F9E7E2
:1022F000C0010020BFE0FFFFDE2E0000C80000206C
:10230000B4000020054B064806CB531A834203D87D
:10231000914201D0034A13607047C046C0010020BB
:10232000CF070000B4000020054B064806CB531A27
:10233000834204D8914202D0034ADB0813607047FD
:10234000C00100207F3E0000B4000020094A0A4975
:102350005068136810B5C31A5C1808498C4205D937
:102360009368054A1B1A9A188A4201D8044A1360D6
:1023700010BDC046C001002017FCFFFFE6030000AF
:10238000B40000203D4AF0B5146801223C493D4D9F
:102390000B683D4F87B0A2426ADA96008E1930680A
:1023A000EB1A1B18BB4265D800251227374C6B006F
:1023B000F2185068F3583900C01AFDF7AFFE013823
:1023C00028510435402DF2D1226923680092226AF7
:1023D00066680192626901990292626AE5680392F5
:1023E000A268039F0492A269E0690592A26A9446DA
:1023F000009A5A404A40D100029A72407A409200B4
:102400000A432900E76A414079400A43059F04993D
:1024100079406746794049000A43676B216BBF00EA
:10242000C9003943E76B52B23943A76B7F00394388
:1024300049B28A421CD1624676029B02334313435F
:10244000049AED01160233431D43009BC0009B011B
:102450001D43029B5B011D43059B1B011D43019B0B
:1024600028439B001843039B5B001843084B1860EC
:1024700007B0F0BD030001328DE7C0461800002010
:10248000C0010020BFE0FFFFDE2E00006C00002036
:10249000B400002010B508212448FEF715FC244C98
:1024A0002378002B01D1FFF779FE2378012B3BD154
:1024B000204B1B78012B07D1FFF764FF40231E4AF6
:1024C00000211E48FFF742FB1D4B1B78012B07D153
:1024D000FFF7E6FE1023184A00211848FFF736FBE5
:1024E000184B1B78012B07D1FFF730FF0323124A4B
:1024F00000211248FFF72AFB134B1B78002B07D053
:10250000FFF700FF03230C4A00210C48FFF71EFBD6
:102510000E4B1B78002B07D0FFF706FF0323064A5C
:1025200000210648FFF712FB10BDC0460008004816
:10253000B8000020AC000020C0010020E8120020FC
:10254000D8000020E8000020C4000020C5000020C2
:10255000F8B50F4B18680F4B984215DC0E4A0F4C1C
:1025600013680F4D9E00216877597051C91B4018A0
:102570000C49013320608B4207DCFA21136089008B
:10258000FDF756FE084B1860F8BD0023F5E7C0467E
:10259000BC00002034080000DC000020F80000200F
:1025A00048030020E7030000EC000020112330B5B1
:1025B00091B00493013B0A9380235B020D93802327
:1025C0005B03012402250E93002304A805940994BB
:1025D0000C950F93FEF77CFB002800D0FEE7072345
:1025E000029003902100684600930195FEF784FD58
:1025F000041E00D0FEE7FEF715FEFA218900FDF764
:102600008DFDFEF7C9F90420FEF7E0F90120220054
:1026100021004042FEF786F911B030BDF0B59BB005
:10262000FDF704FFFFF7C2FF8020C003FFF7B2FBF6
:1026300080208002FFF7AEFB8020C002FFF7AAFBDC
:1026400090208023002601251B02C005836213A968
:1026500013931495159616961796FFF73FFB9B4B11
:1026600031005A690B202A435A615B6932002B40C2
:102670000593059BFEF756F90B20FEF783F9944C62
:10268000944B2000236004236361C223FF33666000
:10269000A660E6602561A661E66126626662A362C5
:1026A000E66226636563FDF7EFFEB04200D0FEE709
:1026B000062380261393802376015B0513A920004F
:1026C00014961593FDF7FAFF002800D0FEE7824F1D
:1026D000824BB8603B605023F8607B603861B86122
:1026E000F8614D3B38007E613B62FEF767F80028D9
:1026F00000D0FEE77A4C7B4B206123602023A3604F
:10270000F4236061FF33A0612000E3606560FEF7A1
:102710008BFF744B0393002800D0FEE708A920002C
:102720000896FFF753F9002800D0FEE72000FEF7D7
:1027300096FF002800D0FEE70690079006A920002B
:10274000FFF76CFA021E00D0FEE760230D900E909A
:102750000F901090119012900CA920000C93FEF78E
:10276000F5FF002800D0FEE704220CA92000FEF7A8
:10277000EDFF002800D0FEE708220CA92000FEF79C
:10278000E5FF002800D0FEE73C22169280220023BD
:10279000920113A920001393149315931793189281
:1027A0001993FFF75DFA051E00D0FEE7200000F048
:1027B0002BFB802364264C4CDB0523604B4B200015
:1027C0006660A560E3602561A561FEF72DFF002826
:1027D00000D0FEE7802513A96D0120001395FFF7B7
:1027E000F5F8002800D0FEE70C900D900CA9200011
:1027F000FFF714FA002800D0FEE73D4C3D4B666021
:102800003D4EA0602061A06120002360E660FEF7DD
:102810000BFF384B0193002800D0FEE713A92000DE
:102820001395FFF7D3F8002800D0FEE70C900D9029
:102830000CA92000FFF7F2F9002800D0FEE72F4C8A
:102840002F4B6060A06020616061A0612000236068
:10285000E660FEF7E9FE002800D0FEE70CA92000A4
:102860000C95FFF7B3F8002800D0FEE72000FEF734
:1028700011FF002800D0FEE7002308A920000893DC
:102880000993FFF7CBF9021E00D0FEE70A230125CA
:102890001590169013A9200013931495FEF7ECFFE2
:1028A000061E00D0FEE71048FEF790FD1048FEF728
:1028B00081FD4023134A31002000FFF747F938001B
:1028C000FDF7C4FF00281FD0FEE7C04600100240FD
:1028D0002813002000240140540100201C00014066
:1028E00008030020002C0140E8120020881300009B
:1028F0008001002000040040FFFF000014010020C0
:1029000000400140C0010020AF4BB04A1B68536338
:102910009363D3630295FFF71BFEFA22AC4BAD4ED7
:102920001B68AD4C9200934200DC26E1029A3260B3
:10293000AA4A9B189B10A44A323313602368002BC9
:1029400001D1FFF731FBA64DA64A2B68126801336F
:102950002B60934202DD002323602B603368012B40
:1029600004D12368002B01D1FFF7D2FB8023DB05C4
:102970005A6A9D4B1B689A42CDD9039B5A6A9B4B5E
:102980001B689A42C7D99A4B1B68002B78D1380034
:10299000FDF79EFF002811D1964A974913680968F0
:1029A000013313608B4209DD944B80211860944BF6
:1029B000090218609023DB05996210603800FDF76A
:1029C00087FF8023DB01984203D18C4A13680133CF
:1029D00013602368012B53D17B4B1A687B4B5A63DE
:1029E0009A63DA63874B1B689C4680236246DB054B
:1029F000002A02D1844A1268DA62596ADA6A91427C
:102A000001D900225A627E490B68002B38D17B4ADB
:102A10007E4816680068864232DD1360754A2B6076
:102A200013608022902302981202DB0508609A61ED
:102A3000019B5A6A764B1A60764B1B689A420FDDEF
:102A400003267549D31A0868310041438B4202DCE2
:102A5000834200DB99E0714B1B6818186E4B1860BD
:102A60006346002B08D06E4B1968019B5B6A9B1A6A
:102A70008B42FAD3FFF7D0FA654B1A68654B1A60A0
:102A80005B4B1B68012B00D045E73800FDF720FFAA
:102A90008023DB01984212D1564A574913680968CE
:102AA000013313608B420ADD00235E4980200B60F6
:102AB000534900020B609021C905886213605A488F
:102AC000FDF706FF002803D1564A1368013313604F
:102AD0002368012B00D01EE73B4B1A683B4B5A631F
:102AE0009A63DA63474B1E688023DB05002E02D110
:102AF000454A1268DA62596ADA6A914201D90022BB
:102B00005A623F490B68002B00D004E7454A47480A
:102B100014680068844200DCFDE61360354A2B60CF
:102B200013608022902302981202DB0508609A61EC
:102B3000019B3F4C5A6A3F4B22601B689A420DDD55
:102B40003549D31A0868050096356D00AB4201DCA3
:102B5000834229DA314B1B6818180860002E08D010
:102B60002F4B1968019B5B6A9B1A8B42FAD3FFF7C4
:102B700053FA22682F4B1A60CDE62F4A934200DDAC
:102B8000DCE6002333602360D8E6D80FC018224962
:102B900040100860D9170E402049F3180E689B10AA
:102BA0001F499B1B0B605BE7D80FC01840100860E3
:102BB0000320D9170140CB1818499B1009685B1AEC
:102BC00017490B60CAE7C04608000020002C0140EE
:102BD000EC000020F0000020E000002018FCFFFFC7
:102BE0000C0100203C00002004000020C002002056
:102BF00024000020B00000200C000020680000200D
:102C000040000020E40000203400002030000020BC
:102C1000F4000020C000002064000020000000201C
:102C200008010020FC000020540100203800002092
:102C3000040100200001002083030000FEE70000E3
:102C400007B501200C4A9169014391619369002203
:102C50000340110001930638019BFDF763FE00223B
:102C6000022011004042FDF75DFE0022012011000C
:102C70004042FDF757FE07BD0010024010B5124B51
:102C8000026886B09A421CD18020104A8000916967
:102C9000002401439161936901A903400093009BC3
:102CA00090204023C00501933D3B02930394FDF720
:102CB0005BFF0C2022002100FDF734FE0C20FDF705
:102CC00061FE06B010BDC046002401400010024065
:102CD00010B50D4B026886B09A4212D12223902083
:102CE0000024019301A91F3BC00502930394FDF743
:102CF0003BFF0C2022002100FDF714FE0C20FDF705
:102D000041FE06B010BDC0461C00014070B503680E
:102D1000364A88B0050093420BD18020344A000126
:102D2000916901439161936903400093009B08B04E
:102D300070BD8022D205934211D101202C4AD16965
:102D40000143D161D36900220340019311000E3089
:102D5000019BFDF7E7FD0F20FDF714FEE7E7254A8D
:102D6000934209D10220224AD1690143D161D3693A
:102D700003400393039BDAE71F4A9342D7D1802095
:102D80001B4A40029169002601439161936903A99E
:102D900003400293029B90200423C0050393023B4F
:102DA0000493059606960796FDF7DEFE134C144B2A
:102DB000200023608023E360DB1823618023DB0095
:102DC000636180239B016660A660A661E361FDF7F5
:102DD00011FEB04204D084210A484900FFF72EFFBB
:102DE0006C622C62AC6365626C63A0E7002C0140EE
:102DF000001002400004004000400140C4020020D6
:102E000058000240E82F000830B50F4B026887B029
:102E10009A4217D1F023902002240025DB0001A95B
:102E2000C00501930294039504950594FDF79CFE5B
:102E3000032301A905480193029403950495059481
:102E4000FDF792FE07B030BD002C014000040048A1
:102E50007047FEE77047704710B5FDF7F7FAFDF7CA
:102E6000C4FD10BD10B5FFF715FB0248FDF733FE9A
:102E700010BDC046C402002010B50348FDF7AEFBEC
:102E80000248FDF739FD10BD281300205401002031
:102E900010B50248FEF7C9FA10BDC046E81200207E
:102EA0000121114B11481A680A431A605A680240FE
:102EB0005A601A680E4802401A601A680D480240AB
:102EC0001A605A680C4802400F205A60DA6A82433E
:102ED000DA621A6B094802401A635A6B8A435A63D2
:102EE00000229A607047C046001002400CB8FFF8FC
:102EF000FFFFF6FEFFFFFBFFFFFFC0FFACFEFFFF83
:102F00000D4885460D480E490E4A002302E0D4586C
:102F1000C4500433C4188C42F9D30B4A0B4C002321
:102F200001E013600432A242FBD3FFF7B9FF00F0C7
:102F300011F8FFF773FBFEE70020002000000020DF
:102F4000480000201C3000084800002074130020B6
:102F5000FEE7000070B500260C4D0D4C641BA4105C
:102F6000A64209D1002600F023F80A4D0A4C641B42
:102F7000A410A64205D170BDB300EB5898470136A6
:102F8000EEE7B300EB5898470136F2E7143000083B
:102F9000143000081430000818300008002310B561
:102FA0009A4200D110BDCC5CC4540133F8E7000054
:102FB000F8B5C046F8BC08BC9E467047F8B5C04698
:082FC000F8BC08BC9E467047F6
:102FC80002030405060708090A0B0C0D0E0F101062
:102FD8000102030405060708090A0B0C0D0E0F1061
:102FE8002E2E5C5372635C73746D3332663078785E
:102FF8005F68616C5F6D73702E63000000000000F5
:0C30080000000001020304060708090094
:04301400E9000008C7
:04301800C1000008EB
:10301C000500000014000000320000000500000054
:10302C00020000000100000040000000030000004E
:10303C000100000001000000204E00000100000013
:10304C00050000008403000001000000D007000010
:08305C000100000000127A00DF
:0400000508002F01BF
:00000001FF
